:040000000200743254
:01000B0032C2
:0100130032BA
:01001B0032B2
:0100230032AA
:03002B00020101CE
:200030000000E2FBEAF2802C0000E0FBEAF08024E6B50202EBF62200E2B50202EBF22200B6
:20005000E0B50202EBF02230F6E0A88220F5D3EAC6F582228B822230F6E6A88220F5D980C6
:01007000CFC0
:0300CD00020071BD
:0300710002037A0D
:2000D0003098FDAF99C2987E008F828E8322AE82AF83BE0A11BF000E90000DC007C00612A3
:2000F00000DED006D007C2998E993099FD9000002275C7AA75C75543AA103243C97053C82E
:20011000FE75CB8575CAEE75CD8575CCEED2AF439B80D2CA75C7AA75C75543AA27E5AA3024
:20013000E30353AAF72285820885830985F00AE41206E11200D0AB82850882850983850A79
:20015000F0EB1206E1BBA0EB74012508FAE43509FBAC0AC004C003C0021200D0A882D002DF
:20017000D003D0048A828B838CF0E81206E174022508F50BE43509F50C850A0DC004C00368
:20019000C0021200D0AD82D002D003D004850B82850C83850DF0ED1206E174032508FDE4F0
:2001B0003509FEAF0AC007C006C005C004C003C0021200D0A882D002D003D004D005D0066F
:2001D000D0078D828E838FF0E81206E1850882850983850AF0120EABFF8A828B838CF012A7
:2001F0000EAB2FFF850B82850C83850DF0120EAB2FB50001220201432290000E75F04012D1
:200210000136AF0FBF0102801DBF1102803EBF12028060BF13030202AABF21030202CDBF41
:2002300022030202EE22E51024FF9295D2DEAE107F00C006C00774CBC0E0740EC0E07480C7
:20025000C0E0120724E58124FBF58122E51024FF9282A282E433FE7F00C006C00774D3C01C
:20027000E0740EC0E07480C0E0120724E58124FBF58122E51024FF9283A283E433FE7F0098
:20029000C006C00774E0C0E0740EC0E07480C0E0120724E58124FBF581228510DCD2DEAEEE
:2002B000DC7F00C006C00774EDC0E0740EC0E07480C0E0120724E58124FBF58122A281E42E
:2002D00033FE7F00C006C00774FAC0E0740EC0E07480C0E0120724E58124FBF58122A28091
:2002F000E433FE7F00C006C0077401C0E0740FC0E07480C0E0120724E58124FBF58122ACFB
:2003100082AD83AEF0FF53B1BF43B24043B18053B27F759850438920438780438E1053C403
:20033000DF8C148D158E168F1790424075F00FE412067CAC820CC3E49CF58DD28ED2992258
:20035000AD82AE83AFF0C007C006C0051200D0AB82D005D006D0078D828E838FF0EB120609
:20037000E1A3AD82AE83BB0ADD22904B00E4F5F012030F7408C0E0740FC0E07480C0E01218
:20039000072415811581158112010B53B3DF43B42053B1FB43B20453B1F743B20853B1EF63
:2003B00043B21043B10253B2FD43B10153B2FE75D10075D9FF538EBF43DF0753DFEFA2AF6A
:2003D0009200C2AF75C7AA75C75543910143C60875C7AA75C7555391FEA20092AFA2AF928E
:2003F00000C2AF75C7AA75C75543910143C62075C7AA75C7555391FEA20092AFC282C28342
:20041000C2849001F4E4F5F012046F75D50075C500D2DF741CC0E0740FC0E07480C0E01285
:0D043000072415811581158112020980FB3A
:200ECB0052313A2025780A004C45445F5245443A2025780A004C45445F47524E3A20257861
:200EEB000A004C45445F424C553A2025780A0053313A25780A0053323A25780A000A0A4C9A
:180F0B00432D54656368204346572076312E310A0072656164790A008B
:20043D00AC82AD83AEF0FF538EF7438901D28CEC4D4E4F601A758A7E758CFF108D0280FBBA
:20045D001CBCFF091DBDFF051EBEFF011F80E0C28C22AC82AD83AEF0FF538EF7438901D284
:20047D008CEC4D4E4F601A758ACA758CFA108D0280FB1CBCFF091DBDFF051EBEFF011F806C
:20049D00E0C28C22AC82AD83AEF0FF538EEF438910D28EEC4D4E4F601A758BEA758DCB10D1
:2004BD008F0280FB1CBCFF091DBDFF051EBEFF011F80E0C28E22AC82AD83AEF0FF53C9BFB2
:2004DD0053C9DF43C910D2CAEC4D4E4F601A75CC3075CDF810CF0280FB1CBCFF091DBDFF3C
:2004FD00051EBEFF011F80E0C2CA22AC82AD83AEF0FF75C40743C408EC4D4E4F602075C5F7
:20051D002C75C6CFABC4530310BB10F853C4EF1CBCFF091DBDFF051EBEFF011F80DA53C4C0
:20053D00F722AC82AD83AEF0FF75C40743C408EC4D4E4F602075C5D875C6FFABC4530310C4
:19055D00BB10F853C4EF1CBCFF091DBDFF051EBEFF011F80DA53C4F72279
:20057600AC82AD83AEF0FF53B1BF53B2BF53B17F53B27F759850438920438780438E105315
:20059600C4DF8C148D158E168F1790424075F00FE412067CAC820CC3E49CF58DD28ED2994E
:2005B60022AC82AD83AEF0FF53B1BF53B2BF53B17F53B27F75985043878053C4F843C4209D
:2005D6008C148D158E168F1790424075F00FE412067CAC82AD83AEF0FF74FFC39C74FF9D9E
:2005F600F9E49EE49F89C674FFC39CF5C543C408D299223098FD859982C29822AF82C29903
:200616008F993099FD22AC82AD83AEF0FF53B1FB53B2FB53B3BF53B4BF75F85075C40853DE
:20063600C4DF8C148D158E168F1790424075F00FE412067CAC82AD83AEF0FF74FFC39C7436
:20065600FF9DF9E49EE49F89C674FFC39CF5C543C4082230F8FD859A82C2F822AF82C2F950
:060676008F9A30F9FD220D
:20067C00FB7A20E4FCFDFEFFE5822582F582E58333F583E5F033F5F0EB33FB4017DAE980B7
:20069C0042E5822582F582E58333F583E5F033F5F0EB33FBEC33FCED33FDEE33FEEF33FFE6
:2006BC00EC9514ED9515EE9516EF95174013EC9514FCED9515FDEE9516FEEF9517FF438250
:0506DC0001DABEEB2273
:0600A300E478FFF6D8FD31
:200081007900E94400601B7A00900F2E780175A000E493F2A308B8000205A0D9F4DAF275E8
:0200A100A0FFBE
:1B06E10020F71130F6138883A88220F509F6A8837583002280FEF280F5F02218
:2000A9007800E84400600A790175A000E4F309D8FC7800E84400600C7900900001E4F0A355
:0400C900D8FCD9FA8C
:2006FC00C0138581137E008E831200DED0132285823185833285F033E4F52EF52FF530857F
:20071C0012349006FC0207E2C013E581F51324FBF534E4F52EF52FF530E51324FBF886315B
:0F073C000886320886339006FC1207E2D013229B
:20074B00AF82C024C025C0261207588007C022C0238F8222158115811581052CE4B52C0204
:20076B00052D22AF8274302FFF24C6500B74072FFFE52160034307208F8202074BE582FF8B
:20078B00C4540FF582C00712076ED007740F5FF58202076E858214AB27AC28AD29AE2AAAA2
:2007AB002B751620EA2AF515EE2354014515FAEB2BFBEC33FCED33FDEE33FEC3EA95144082
:2007CB0008EAC39514FA430301D516D88B278C288D298E2A8A2B22858222858323852E24D6
:2007EB00852F25853026E4F52CF52DAD31AE32AF338D828E838FF0120EABFC74012DF53145
:20080B00E43EF5328F33ECFF7003020E6FBF25028003020E67E4F535F536F537F538F53945
:20082B00F53AF53BF53CF53EF53FF5407541FF7542FFAC31AD32AE338C828D838EF0120EBD
:20084B00ABF546A3AC82AD838C318D328E337425B5460885468212074B809074D02546401D
:20086B0003020907E54624C6500302090774FFB5414BB54248C004C005C006853F148540FF
:20088B001590000AC006C005C004120E8EAA82AB83D004D005D006AE467D00EE2AFAED3B1D
:2008AB00FBEA24D0F53FEB34FFF540E53F4540D006D005D0047081753601020843C004C037
:2008CB0005C00685411485421590000AC006C005C004120E8EAA82AB83D004D005D006AD6F
:2008EB00467E00ED2AFAEE3BFBEA24D0F541EB34FFF542D006D005D004020843742EB54622
:20090B001574FFB54105B542028003020843E4F541F542020843749F2546500EE546248532
:20092B0040085346DF75210180037521007420B546030209D4742BB546030209CE742DB5FF
:20094B00460280797442B546030209DA7443B546030209E67444B54603020B787446B5461C
:20096B0003020B8F7448B546030208437449B54603020B78744AB54603020843744CB546C2
:20098B00028052744FB54603020B807450B54603020B0D7453B5460280627454B5460302E0
:2009AB0008437455B54603020B857458B54603020B8A745AB54603020843020B94753501C2
:2009CB00020843753701020843753801020843753A01020843753B01020843E53A600AE561
:2009EB003414F989348706800BE53424FEFD8D348D0187068E8212074B020BA0E53424FD67
:200A0B00FE8E348E01870409870509870619198C278D288E298C828D838EF0120E7685823C
:200A2B004785834874FFB54109B54206854741854842E535703DC3E547953FE548954050AD
:200A4B0032E53FC39547F53FE5409548F540AC3FAB408C028B061CBCFF011BEA4E60107526
:200A6B008220C004C00312074BD003D00480E38C3F8B40AD41AE42AA27AB28AC298A828B50
:200A8B00838CF0120EABFC6033C3E49D74808EF063F08095F050251DBDFF011E8C82C006A3
:200AAB00C00512074BD005D006AA27AB28AC290ABA00010B8A278B288C2980BBE53570032D
:200ACB00020BA0C3E547953FE54895404003020BA0E53FC39547F53FE5409548F540AE3F8E
:200AEB00AD408E038D041EBEFF011DEB4C7003020B9C758220C006C00512074BD005D006DF
:200B0B0080E0E53424FDFC8C348C01870209870309870419198A278B288C29AC29BC8000DB
:200B2B0040047B438014BC600040047B50800BBC400040047B4980027B588B82C00312071C
:200B4B004B75823A12074B75823012074B75827812074BD003BB4902800BBB5002800685D0
:200B6B0028821207888527821207888028753901753E0A8020753E08801B753E0A8016757E
:200B8B003E108011753C01800C85468212074B80048E3F8D40E53C605BE53424FCFE8E3489
:200BAB008E0187030987040987050987061919198B278C288D298E2A75272375280F75292A
:200BCB008085274985284A85294B74012549FAE4354AFBAE4B8A278B288E29854982854A37
:200BEB0083854BF0120EABFD70030207F68D8212074B80CDE53E70030207F6E53A6032E582
:200C0B003414F9893487067D007C007B008E278D288C298B2AE5397072AB27AC28AD29AECC
:200C2B002A7C007D007E008B278C288D298E2A805AE53B6021E53424FCFE8E348E018703A7
:200C4B000987040987050987061919198B278C288D298E2A8035E53424FEFE8E348E0187E5
:200C6B000509870619EE3395E0FCFB8D278E288C298B2AE5397014AB27AC28AD29AE2A7DE1
:200C8B00007E008B278C288D298E2AE539602DAB27AC28AD29E52A30E71FAB27AC28AD290F
:200CAB00AE2AC3E49BFBE49CFCE49DFDE49EFE8B278C288D298E2A8003753900753D017969
:200CCB001DE4F549F54A752B00853E82C00112079FD001E53D7013E52BC454F0FCE52BC4CF
:200CEB00540F4204E74CF7198002A72B74012549F549E4354AF54AE53DB40100E433F53DC6
:200D0B00AA27AB28AC29AE2AEA4B4C4E70B88945854943854A44E53F45407005753F01F5C6
:200D2B0040E536702FE535702BAA3FAB40AE430E8E057E00C3ED9AEE9B5015758220C00303
:200D4B00C00212074BD002D0031ABAFF011B80DD8A3F8B40E539601175822D12074B153F72
:200D6B0074FFB53F021540802EE54345446028E537601175822B12074B153F74FFB53F02F3
:200D8B0015408013E538600F75822012074B153F74FFB53F021540E535702FAE3FAD408E26
:200DAB00038D041EBEFF011DC3E5439BE5449C503AE53660047C3080027C208C82C006C0E9
:200DCB000512074BD005D00680D5C3E543953FE5449540500FE53FC39543F53FE540954492
:200DEB00F540800BE4F53FF54080048E3F8D40A945AD43AE448D038E041DBDFF011EEB4C9C
:200E0B00602FE53DB40100E433F53D700909E7C4540FF52B80078704740F5CF52B852B8225
:200E2B00C006C005C00112076ED001D005D00680C4E53570030207F6AD3FAE408D038E048C
:200E4B001DBDFF011EEB4C70030207F6758220C006C00512074BD005D00680E08F821207AB
:0B0E6B004B0207F6852C82852D8322A8
:0B0F23003C4E4F20464C4F41543E0016
:180E7600AA82AB83120EAB6003A380F8C3E5829AF582E5839BF58322E9
:1D0E8E00E5828514F0A4C582C0F08515F0A4D0F025F0C5838514F0A42583F5832202
:0D00740075814B120EC7E58260030200711A
:1C0EAB0020F71430F6148883A88220F507E6A88375830022E280F7E49322E02256
:040EC700758200220E
:00000001FF
