:040000000200643264
:01000B0032C2
:0100130032BA
:03001B000200F1EF
:200020000000E2FBEAF2802C0000E0FBEAF08024E6B50202EBF62200E2B50202EBF22200C6
:20004000E0B50202EBF02230F6E0A88220F5D3EAC6F582228B822230F6E6A88220F5D980D6
:01006000CFD0
:0300BD00020061DD
:0300610002035542
:2000C0003098FDAF99C2987E008F828E8322AE82AF83BE0A11BF000E90000DC007C00612B3
:2000E00000CED006D007C2998E993099FD9000002275CDFC75CC1875C7AA43AA40324389E3
:200100001075CDFC75CC18D2ABD2AF75C7AAD2CA2285820885830985F00AE41206A9120040
:20012000C0AB82850882850983850AF0EB1206A9BBA0EB74012508FAE43509FBAC0AC0040E
:20014000C003C0021200C0A882D002D003D0048A828B838CF0E81206A974022508F50BE4DF
:200160003509F50C850A0DC004C003C0021200C0AD82D002D003D004850B82850C83850D29
:20018000F0ED1206A974032508FDE43509FEAF0AC007C006C005C004C003C0021200C0A832
:2001A00082D002D003D004D005D006D0078D828E838FF0E81206A9850882850983850AF0DB
:2001C000120E73FF8A828B838CF0120E732FFF850B82850C83850DF0120E732FB5000122F4
:2001E00002011E2290000E75F040120111AF0FBF0102801DBF1102803EBF12028060BF1323
:2002000003020285BF21030202A8BF22030202C922E51024FF9295D2DEAE107F00C006C03E
:20022000077493C0E0740EC0E07480C0E01206ECE58124FBF58122E51024FF9282A282E405
:2002400033FE7F00C006C007749BC0E0740EC0E07480C0E01206ECE58124FBF58122E510E6
:2002600024FF9283A283E433FE7F00C006C00774A8C0E0740EC0E07480C0E01206ECE58124
:2002800024FBF581228510DCD2DEAEDC7F00C006C00774B5C0E0740EC0E07480C0E0120659
:2002A000ECE58124FBF58122A281E433FE7F00C006C00774C2C0E0740EC0E07480C0E01253
:2002C00006ECE58124FBF58122A280E433FE7F00C006C00774C9C0E0740EC0E07480C0E039
:2002E0001206ECE58124FBF58122AC82AD83AEF0FF53B1BF43B24043B18053B27F75985095
:20030000438920438780438E1053C4DF8C148D158E168F1790424075F00FE4120644AC8250
:200320000CC3E49CF58DD28ED29922AD82AE83AFF0C007C006C0051200C0AB82D005D00604
:20034000D0078D828E838FF0EB1206A9A3AD82AE83BB0ADD22904B00E4F5F01202EA74D0CE
:20036000C0E0740EC0E07480C0E01206EC1581158115811200FE53B3DF43B42053B1FB4313
:20038000B20453B1F743B20853B1EF43B21043B10253B2FD43B10153B2FE75D10075D9FF34
:2003A000538EBF43DF0753DFEFA2AF9200C2AF75C7AA75C75543910143C60875C7AA75C780
:2003C000555391FEA20092AFA2AF9200C2AF75C7AA75C75543910143C62075C7AA75C755C3
:2003E0005391FEA20092AFC282C283C2849001F4E4F5F012043775D50075C500D282D2DF45
:050400001201E480FB85
:200E930052313A2025780A004C45445F5245443A2025780A004C45445F47524E3A20257899
:200EB3000A004C45445F424C553A2025780A0053313A25780A0053323A25780A000A0A4CD2
:170ED300432D54656368204346572076312E302072656164790A00B0
:20040500AC82AD83AEF0FF538EF7438901D28CEC4D4E4F601A758A7E758CFF108D0280FBF2
:200425001CBCFF091DBDFF051EBEFF011F80E0C28C22AC82AD83AEF0FF538EF7438901D2BC
:200445008CEC4D4E4F601A758ACA758CFA108D0280FB1CBCFF091DBDFF051EBEFF011F80A4
:20046500E0C28C22AC82AD83AEF0FF538EEF438910D28EEC4D4E4F601A758BEA758DCB1009
:200485008F0280FB1CBCFF091DBDFF051EBEFF011F80E0C28E22AC82AD83AEF0FF53C9BFEA
:2004A50053C9DF43C910D2CAEC4D4E4F601A75CC3075CDF810CF0280FB1CBCFF091DBDFF74
:2004C500051EBEFF011F80E0C2CA22AC82AD83AEF0FF75C40743C408EC4D4E4F602075C52F
:2004E5002C75C6CFABC4530310BB10F853C4EF1CBCFF091DBDFF051EBEFF011F80DA53C4F9
:20050500F722AC82AD83AEF0FF75C40743C408EC4D4E4F602075C5D875C6FFABC4530310FC
:19052500BB10F853C4EF1CBCFF091DBDFF051EBEFF011F80DA53C4F722B1
:20053E00AC82AD83AEF0FF53B1BF53B2BF53B17F53B27F759850438920438780438E10534D
:20055E00C4DF8C148D158E168F1790424075F00FE4120644AC820CC3E49CF58DD28ED299BE
:20057E0022AC82AD83AEF0FF53B1BF53B2BF53B17F53B27F75985043878053C4F843C420D5
:20059E008C148D158E168F1790424075F00FE4120644AC82AD83AEF0FF74FFC39C74FF9D0E
:2005BE00F9E49EE49F89C674FFC39CF5C543C408D299223098FD859982C29822AF82C2993B
:2005DE008F993099FD22AC82AD83AEF0FF53B1FB53B2FB53B3BF53B4BF75F85075C4085317
:2005FE00C4DF8C148D158E168F1790424075F00FE4120644AC82AD83AEF0FF74FFC39C74A7
:20061E00FF9DF9E49EE49F89C674FFC39CF5C543C4082230F8FD859A82C2F822AF82C2F988
:06063E008F9A30F9FD2245
:20064400FB7A20E4FCFDFEFFE5822582F582E58333F583E5F033F5F0EB33FB4017DAE980EF
:2006640042E5822582F582E58333F583E5F033F5F0EB33FBEC33FCED33FDEE33FEEF33FF1E
:20068400EC9514ED9515EE9516EF95174013EC9514FCED9515FDEE9516FEEF9517FF438288
:0506A40001DABEEB22AB
:06009300E478FFF6D8FD41
:200071007900E94400601B7A00900EF5780175A000E493F2A308B8000205A0D9F4DAF27532
:02009100A0FFCE
:1B06A90020F71130F6138883A88220F509F6A8837583002280FEF280F5F02250
:200099007800E84400600A790175A000E4F309D8FC7800E84400600C7900900001E4F0A365
:0400B900D8FCD9FA9C
:2006C400C0138581137E008E831200CED0132285823185833285F033E4F52EF52FF53085C7
:2006E40012349006C40207AAC013E581F51324FBF534E4F52EF52FF530E51324FBF8863104
:0F0704000886320886339006C41207AAD0132243
:20071300AF82C024C025C0261207208007C022C0238F8222158115811581052CE4B52C0274
:20073300052D22AF8274302FFF24C6500B74072FFFE52160034307208F82020713E582FFFB
:20075300C4540FF582C007120736D007740F5FF582020736858214AB27AC28AD29AE2AAA4A
:200773002B751620EA2AF515EE2354014515FAEB2BFBEC33FCED33FDEE33FEC3EA951440BA
:2007930008EAC39514FA430301D516D88B278C288D298E2A8A2B22858222858323852E240E
:2007B300852F25853026E4F52CF52DAD31AE32AF338D828E838FF0120E73FC74012DF531B5
:2007D300E43EF5328F33ECFF7003020E37BF25028003020E2FE4F535F536F537F538F539EE
:2007F300F53AF53BF53CF53EF53FF5407541FF7542FFAC31AD32AE338C828D838EF0120EF6
:2008130073F546A3AC82AD838C318D328E337425B54608854682120713809074D0254640C5
:20083300030208CFE54624C650030208CF74FFB5414BB54248C004C005C006853F148540A9
:200853001590000AC006C005C004120E56AA82AB83D004D005D006AE467D00EE2AFAED3B8D
:20087300FBEA24D0F53FEB34FFF540E53F4540D006D005D004708175360102080BC004C0A7
:2008930005C00685411485421590000AC006C005C004120E56AA82AB83D004D005D006ADDF
:2008B300467E00ED2AFAEE3BFBEA24D0F541EB34FFF542D006D005D00402080B742EB54692
:2008D3001574FFB54105B54202800302080BE4F541F54202080B749F2546500EE5462485DB
:2008F30040085346DF75210180037521007420B5460302099C742BB54603020996742DB5A8
:20091300460280797442B546030209A27443B546030209AE7444B54603020B407446B546FC
:2009330003020B577448B5460302080B7449B54603020B40744AB5460302080B744CB546DA
:20095300028052744FB54603020B487450B54603020AD57453B5460280627454B546030289
:20097300080B7455B54603020B4D7458B54603020B52745AB5460302080B020B5C75350112
:2009930002080B75370102080B75380102080B753A0102080B753B0102080BE53A600AE5B1
:2009B3003414F989348706800BE53424FEFD8D348D0187068E82120713020B68E53424FD0F
:2009D300FE8E348E01870409870509870619198C278D288E298C828D838EF0120E3E8582AD
:2009F3004785834874FFB54109B54206854741854842E535703DC3E547953FE548954050E6
:200A130032E53FC39547F53FE5409548F540AC3FAB408C028B061CBCFF011BEA4E6010755E
:200A33008220C004C003120713D003D00480E38C3F8B40AD41AE42AA27AB28AC298A828BC0
:200A5300838CF0120E73FC6033C3E49D74808EF063F08095F050251DBDFF011E8C82C00613
:200A7300C005120713D005D006AA27AB28AC290ABA00010B8A278B288C2980BBE53570039D
:200A9300020B68C3E547953FE54895404003020B68E53FC39547F53FE5409548F540AE3F36
:200AB300AD408E038D041EBEFF011DEB4C7003020B64758220C006C005120713D005D00687
:200AD30080E0E53424FDFC8C348C01870209870309870419198A278B288C29AC29BC800014
:200AF30040047B438014BC600040047B50800BBC400040047B4980027B588B82C003120755
:200B13001375823A120713758230120713758278120713D003BB4902800BBB5002800685E8
:200B330028821207508527821207508028753901753E0A8020753E08801B753E0A80167526
:200B53003E108011753C01800C85468212071380048E3F8D40E53C605BE53424FCFE8E34F9
:200B73008E0187030987040987050987061919198B278C288D298E2A7527EA75280E75299C
:200B93008085274985284A85294B74012549FAE4354AFBAE4B8A278B288E29854982854A6F
:200BB30083854BF0120E73FD70030207BE8D8212071380CDE53E70030207BEE53A6032E59A
:200BD3003414F9893487067D007C007B008E278D288C298B2AE5397072AB27AC28AD29AE05
:200BF3002A7C007D007E008B278C288D298E2A805AE53B6021E53424FCFE8E348E018703E0
:200C13000987040987050987061919198B278C288D298E2A8035E53424FEFE8E348E01871D
:200C33000509870619EE3395E0FCFB8D278E288C298B2AE5397014AB27AC28AD29AE2A7D19
:200C5300007E008B278C288D298E2AE539602DAB27AC28AD29E52A30E71FAB27AC28AD2947
:200C7300AE2AC3E49BFBE49CFCE49DFDE49EFE8B278C288D298E2A8003753900753D0179A1
:200C93001DE4F549F54A752B00853E82C001120767D001E53D7013E52BC454F0FCE52BC43F
:200CB300540F4204E74CF7198002A72B74012549F549E4354AF54AE53DB40100E433F53DFE
:200CD300AA27AB28AC29AE2AEA4B4C4E70B88945854943854A44E53F45407005753F01F5FF
:200CF30040E536702FE535702BAA3FAB40AE430E8E057E00C3ED9AEE9B5015758220C0033C
:200D1300C002120713D002D0031ABAFF011B80DD8A3F8B40E539601175822D120713153F1A
:200D330074FFB53F021540802EE54345446028E537601175822B120713153F74FFB53F0263
:200D530015408013E538600F758220120713153F74FFB53F021540E535702FAE3FAD408E96
:200D7300038D041EBEFF011DC3E5439BE5449C503AE53660047C3080027C208C82C006C021
:200D930005120713D005D00680D5C3E543953FE5449540500FE53FC39543F53FE540954402
:200DB300F540800BE4F53FF54080048E3F8D40A945AD43AE448D038E041DBDFF011EEB4CD4
:200DD300602FE53DB40100E433F53D700909E7C4540FF52B80078704740F5CF52B852B825E
:200DF300C006C005C001120736D001D005D00680C4E53570030207BEAD3FAE408D038E0435
:200E13001DBDFF011EEB4C70030207BE758220C006C005120713D005D00680E08F82120753
:0B0E3300130207BE852C82852D832250
:0B0EEA003C4E4F20464C4F41543E0050
:180E3E00AA82AB83120E736003A380F8C3E5829AF582E5839BF5832259
:1D0E5600E5828514F0A4C582C0F08515F0A4D0F025F0C5838514F0A42583F583223A
:0D00640075814B120E8FE582600302006172
:1C0E730020F71430F6148883A88220F507E6A88375830022E280F7E49322E0228E
:040E8F007582002246
:00000001FF
