:0300000002004CAF
:200008000000E2FBEAF2802C0000E0FBEAF08024E6B50202EBF62200E2B50202EBF22200DE
:20002800E0B50202EBF02230F6E0A88220F5D3EAC6F582228B822230F6E6A88220F5D980EE
:01004800CFE8
:0300A5000200490D
:0300490002029F11
:2000A8003098FDAF99C2987E008F828E8322AE82AF83BE0A11BF000E90000DC007C00612CB
:2000C80000B6D006D007C2998E993099FD9000002285820885830985F00AE41205F012001F
:2000E800A8AB82850882850983850AF0EB1205F0BBA0EB74012508FAE43509FBAC0AC00419
:20010800C003C0021200A8A882D002D003D0048A828B838CF0E81205F074022508F50BE4E9
:200128003509F50C850A0DC004C003C0021200A8AD82D002D003D004850B82850C83850D79
:20014800F0ED1205F074032508FDE43509FEAF0AC007C006C005C004C003C0021200A8A83C
:2001680082D002D003D004D005D006D0078D828E838FF0E81205F0850882850983850AF0CD
:20018800120DBAFF8A828B838CF0120DBA2FFF850B82850C83850DF0120DBA2FB50001225A
:2001A8000200E62290000E75F0401200D9D284AF0FBF01028019BF1102801BBF1202801DB3
:2001C800BF1302801FBF21028020BF225E803CE51024FF929522E51024FF928222E510245F
:2001E800FF9283228510DCD2DE22A281E433FE7F00C006C00774DAC0E0740DC0E07480C077
:20020800E0120633E58124FBF58122A280E433FE7F00C006C00774E1C0E0740DC0E0748041
:20022800C0E0120633E58124FBF58122AC82AD83AEF0FF53B1BF43B24043B18053B27F754E
:200248009850438920438780438E1053C4DF8C148D158E168F1790424075F00FE412058B09
:20026800AC820CC3E49CF58DD28ED29922AD82AE83AFF0C007C006C0051200A8AB82D0057D
:20028800D006D0078D828E838FF0EB1205F0A3AD82AE83BB0ADD22904B00E4F5F012023465
:2002A80074E8C0E0740DC0E07480C0E012063315811581158153B3DF43B42053B1FB43B288
:2002C8000453B1F743B20853B1EF43B21043B10253B2FD43B10153B2FE75D10075D9FF534C
:2002E8008EBF43DF0753DFEFA2AF9200C2AF75C7AA75C75543910143C60875C7AA75C75537
:200308005391FEA20092AFA2AF9200C2AF75C7AA75C75543910143C62075C7AA75C755537D
:2003280091FEA20092AFC282C283C2849001F4E4F5F012037E75D50075C500D282D2DF12F8
:0403480001AC80FB89
:200DDA0053313A25780A0053323A25780A000A0A0A48656C6C6F20776F726C642E20492716
:200DFA006D2061206861636B79206F70656E736F75726365206669726D7761726520666FE6
:130E1A0072204C432D74656368206D6F64756C65730A00B0
:20034C00AC82AD83AEF0FF538EF7438901D28CEC4D4E4F601A758A7E758CFF108D0280FBAC
:20036C001CBCFF091DBDFF051EBEFF011F80E0C28C22AC82AD83AEF0FF538EF7438901D276
:20038C008CEC4D4E4F601A758ACA758CFA108D0280FB1CBCFF091DBDFF051EBEFF011F805E
:2003AC00E0C28C22AC82AD83AEF0FF538EEF438910D28EEC4D4E4F601A758BEA758DCB10C3
:2003CC008F0280FB1CBCFF091DBDFF051EBEFF011F80E0C28E22AC82AD83AEF0FF53C9BFA4
:2003EC0053C9DF43C910D2CAEC4D4E4F601A75CC3075CDF810CF0280FB1CBCFF091DBDFF2E
:20040C00051EBEFF011F80E0C2CA22AC82AD83AEF0FF75C40743C408EC4D4E4F602075C5E8
:20042C002C75C6CFABC4530310BB10F853C4EF1CBCFF091DBDFF051EBEFF011F80DA53C4B2
:20044C00F722AC82AD83AEF0FF75C40743C408EC4D4E4F602075C5D875C6FFABC4530310B6
:19046C00BB10F853C4EF1CBCFF091DBDFF051EBEFF011F80DA53C4F7226B
:20048500AC82AD83AEF0FF53B1BF53B2BF53B17F53B27F759850438920438780438E105307
:2004A500C4DF8C148D158E168F1790424075F00FE412058BAC820CC3E49CF58DD28ED29932
:2004C50022AC82AD83AEF0FF53B1BF53B2BF53B17F53B27F75985043878053C4F843C4208F
:2004E5008C148D158E168F1790424075F00FE412058BAC82AD83AEF0FF74FFC39C74FF9D82
:20050500F9E49EE49F89C674FFC39CF5C543C408D299223098FD859982C29822AF82C299F4
:200525008F993099FD22AC82AD83AEF0FF53B1FB53B2FB53B3BF53B4BF75F85075C40853D0
:20054500C4DF8C148D158E168F1790424075F00FE412058BAC82AD83AEF0FF74FFC39C741A
:20056500FF9DF9E49EE49F89C674FFC39CF5C543C4082230F8FD859A82C2F822AF82C2F942
:060585008F9A30F9FD22FF
:20058B00FB7A20E4FCFDFEFFE5822582F582E58333F583E5F033F5F0EB33FB4017DAE980A9
:2005AB0042E5822582F582E58333F583E5F033F5F0EB33FBEC33FCED33FDEE33FEEF33FFD8
:2005CB00EC9514ED9515EE9516EF95174013EC9514FCED9515FDEE9516FEEF9517FF438242
:0505EB0001DABEEB2265
:06007B00E478FFF6D8FD59
:200059007900E94400601B7A00900E38780175A000E493F2A308B8000205A0D9F4DAF27507
:02007900A0FFE6
:1B05F00020F71130F6138883A88220F509F6A8837583002280FEF280F5F0220A
:200081007800E84400600A790175A000E4F309D8FC7800E84400600C7900900001E4F0A37D
:0400A100D8FCD9FAB4
:20060B00C0138581137E008E831200B6D0132285823185833285F033E4F52EF52FF5308598
:20062B00123490060B0206F1C013E581F51324FBF534E4F52EF52FF530E51324FBF8863130
:0F064B0008863208863390060B1206F1D0132270
:20065A00AF82C024C025C0261206678007C022C0238F8222158115811581052CE4B52C02E8
:20067A00052D22AF8274302FFF24C6500B74072FFFE52160034307208F8202065AE582FF6F
:20069A00C4540FF582C00712067DD007740F5FF58202067D858214AB27AC28AD29AE2AAA78
:2006BA002B751620EA2AF515EE2354014515FAEB2BFBEC33FCED33FDEE33FEC3EA95144074
:2006DA0008EAC39514FA430301D516D88B278C288D298E2A8A2B22858222858323852E24C8
:2006FA00852F25853026E4F52CF52DAD31AE32AF338D828E838FF0120DBAFC74012DF53129
:20071A00E43EF5328F33ECFF7003020D7EBF25028003020D76E4F535F536F537F538F5391B
:20073A00F53AF53BF53CF53EF53FF5407541FF7542FFAC31AD32AE338C828D838EF0120DB0
:20075A00BAF546A3AC82AD838C318D328E337425B5460885468212065A809074D0254640F2
:20077A0003020816E54624C6500302081674FFB5414BB54248C004C005C006853F148540D5
:20079A001590000AC006C005C004120D9DAA82AB83D004D005D006AE467D00EE2AFAED3B01
:2007BA00FBEA24D0F53FEB34FFF540E53F4540D006D005D0047081753601020752C004C01B
:2007DA0005C00685411485421590000AC006C005C004120D9DAA82AB83D004D005D006AD53
:2007FA00467E00ED2AFAEE3BFBEA24D0F541EB34FFF542D006D005D004020752742EB54606
:20081A001574FFB54105B542028003020752E4F541F542020752749F2546500EE546248508
:20083A0040085346DF75210180037521007420B546030208E3742BB546030208DD742DB5D5
:20085A00460280797442B546030208E97443B546030208F57444B54603020A877446B546E4
:20087A0003020A9E7448B546030207527449B54603020A87744AB54603020752744CB5467C
:20089A00028052744FB54603020A8F7450B54603020A1C7453B5460280627454B5460302B6
:2008BA0007527455B54603020A947458B54603020A99745AB54603020752020AA37535016E
:2008DA00020752753701020752753801020752753A01020752753B01020752E53A600AE50D
:2008FA003414F989348706800BE53424FEFD8D348D0187068E8212065A020AAFE53424FD3D
:20091A00FE8E348E01870409870509870619198C278D288E298C828D838EF0120D85858220
:20093A004785834874FFB54109B54206854741854842E535703DC3E547953FE5489540509F
:20095A0032E53FC39547F53FE5409548F540AC3FAB408C028B061CBCFF011BEA4E60107518
:20097A008220C004C00312065AD003D00480E38C3F8B40AD41AE42AA27AB28AC298A828B34
:20099A00838CF0120DBAFC6033C3E49D74808EF063F08095F050251DBDFF011E8C82C00687
:2009BA00C00512065AD005D006AA27AB28AC290ABA00010B8A278B288C2980BBE535700311
:2009DA00020AAFC3E547953FE54895404003020AAFE53FC39547F53FE5409548F540AE3F64
:2009FA00AD408E038D041EBEFF011DEB4C7003020AAB758220C006C00512065AD005D006B5
:200A1A0080E0E53424FDFC8C348C01870209870309870419198A278B288C29AC29BC8000CD
:200A3A0040047B438014BC600040047B50800BBC400040047B4980027B588B82C00312060F
:200A5A005A75823A12065A75823012065A75827812065AD003BB4902800BBB500280068589
:200A7A0028821206978527821206978028753901753E0A8020753E08801B753E0A80167554
:200A9A003E108011753C01800C85468212065A80048E3F8D40E53C605BE53424FCFE8E346D
:200ABA008E0187030987040987050987061919198B278C288D298E2A75272D75280E752913
:200ADA008085274985284A85294B74012549FAE4354AFBAE4B8A278B288E29854982854A29
:200AFA0083854BF0120DBAFD70030207058D8212065A80CDE53E7003020705E53A6032E53A
:200B1A003414F9893487067D007C007B008E278D288C298B2AE5397072AB27AC28AD29AEBE
:200B3A002A7C007D007E008B278C288D298E2A805AE53B6021E53424FCFE8E348E01870399
:200B5A000987040987050987061919198B278C288D298E2A8035E53424FEFE8E348E0187D7
:200B7A000509870619EE3395E0FCFB8D278E288C298B2AE5397014AB27AC28AD29AE2A7DD3
:200B9A00007E008B278C288D298E2AE539602DAB27AC28AD29E52A30E71FAB27AC28AD2901
:200BBA00AE2AC3E49BFBE49CFCE49DFDE49EFE8B278C288D298E2A8003753900753D01795B
:200BDA001DE4F549F54A752B00853E82C0011206AED001E53D7013E52BC454F0FCE52BC4B3
:200BFA00540F4204E74CF7198002A72B74012549F549E4354AF54AE53DB40100E433F53DB8
:200C1A00AA27AB28AC29AE2AEA4B4C4E70B88945854943854A44E53F45407005753F01F5B8
:200C3A0040E536702FE535702BAA3FAB40AE430E8E057E00C3ED9AEE9B5015758220C003F5
:200C5A00C00212065AD002D0031ABAFF011B80DD8A3F8B40E539601175822D12065A153F48
:200C7A0074FFB53F021540802EE54345446028E537601175822B12065A153F74FFB53F02D7
:200C9A0015408013E538600F75822012065A153F74FFB53F021540E535702FAE3FAD408E0A
:200CBA00038D041EBEFF011DC3E5439BE5449C503AE53660047C3080027C208C82C006C0DB
:200CDA000512065AD005D00680D5C3E543953FE5449540500FE53FC39543F53FE540954476
:200CFA00F540800BE4F53FF54080048E3F8D40A945AD43AE448D038E041DBDFF011EEB4C8E
:200D1A00602FE53DB40100E433F53D700909E7C4540FF52B80078704740F5CF52B852B8217
:200D3A00C006C005C00112067DD001D005D00680C4E5357003020705AD3FAE408D038E0461
:200D5A001DBDFF011EEB4C7003020705758220C006C00512065AD005D00680E08F82120681
:0B0D7A005A020705852C82852D83227C
:0B0E2D003C4E4F20464C4F41543E000D
:180D8500AA82AB83120DBA6003A380F8C3E5829AF582E5839BF58322CD
:1D0D9D00E5828514F0A4C582C0F08515F0A4D0F025F0C5838514F0A42583F58322F4
:0D004C0075814B120DD6E58260030200495C
:1C0DBA0020F71430F6148883A88220F507E6A88375830022E280F7E49322E02248
:040DD6007582002200
:00000001FF
