:040000000200743254
:01000B0032C2
:0100130032BA
:01001B0032B2
:0100230032AA
:03002B00020101CE
:200030000000E2FBEAF2802C0000E0FBEAF08024E6B50202EBF62200E2B50202EBF22200B6
:20005000E0B50202EBF02230F6E0A88220F5D3EAC6F582228B822230F6E6A88220F5D980C6
:01007000CFC0
:0300CD00020071BD
:030071000203B4D3
:2000D0003098FDAF99C2987E008F828E8322AE82AF83BE0A11BF000E90000DC007C00612A3
:2000F00000DED006D007C2998E993099FD9000002275C7AA75C75543AA103253C98F43C90E
:200110006053C8FE75CB8575CAEE75CD8575CCEE439B80D2AFD2CA75C7AA75C75543AA2768
:20013000E5AA30E30353AAF72285820885830985F00AE412071B1200D0AB82850882850991
:2001500083850AF0EB12071BBBA0EB74012508FAE43509FBAC0AC004C003C0021200D0A8E6
:2001700082D002D003D0048A828B838CF0E812071B74022508F8E43509F9AF0AC007C004C8
:20019000C003C002C001C0001200D0AD82D000D001D002D003D004D007888289838FF0EDC5
:2001B00012071B74032508F50BE43509F50C850A0DC007C004C003C002C001C0001200D025
:2001D000AD82D000D001D002D003D004D007850B82850C83850DF0ED12071B850882850989
:2001F00083850AF0120EE5FE8A828B838CF0120EE52EFE888289838FF0120EE52EFFB505A2
:200210000122850B82850C83850DF0120EE5FE7D007C00C006C005C007C0047405C0E07464
:200230000FC0E07480C0E012075EE58124F9F58102014690000E75F040120139AF0FBF01A5
:2002500002801DBF1102803EBF12028060BF13030202E4BF2103020307BF220302032822CD
:20027000E51024FF9295D2DEAE107F00C006C0077414C0E0740FC0E07480C0E012075EE57A
:200290008124FBF58122E51024FF9282A282E433FE7F00C006C007741CC0E0740FC0E074DE
:2002B00080C0E012075EE58124FBF58122E51024FF9283A283E433FE7F00C006C00774296A
:2002D000C0E0740FC0E07480C0E012075EE58124FBF581228510DCD2DEAEDC7F00C006C073
:2002F000077436C0E0740FC0E07480C0E012075EE58124FBF58122A281E433FE7F00C006D5
:20031000C0077443C0E0740FC0E07480C0E012075EE58124FBF58122A280E433FE7F00C0EE
:2003300006C007744AC0E0740FC0E07480C0E012075EE58124FBF58122AC82AD83AEF0FF3C
:2003500053B1BF43B24043B18053B27F759850438920438780438E1053C4DF8C148D158E63
:20037000168F1790424075F00FE41206B6AC820CC3E49CF58DD28ED29922AD82AE83AFF08E
:20039000C007C006C0051200D0AB82D005D006D0078D828E838FF0EB12071BA3AD82AE83A9
:2003B000BB0ADD22904B00E4F5F01203497451C0E0740FC0E07480C0E012075E15811581A8
:2003D000158112010B53B3DF43B42053B1FB43B20453B1F743B20853B1EF43B21043B1027F
:2003F00053B2FD43B10153B2FE75D10075D9FF538EBF43DF0753DFEFA2AF9200C2AF75C7E6
:20041000AA75C75543910143C60875C7AA75C7555391FEA20092AFA2AF9200C2AF75C7AA35
:2004300075C75543910143C62075C7AA75C7555391FEA20092AFC282C283C2849001F4E4A9
:20045000F5F01204A975D50075C500D2DF7467C0E0740FC0E07480C0E012075E15811581DE
:07047000158112024380FB1D
:200F05006572723A20257820213D2025780A0052313A2025780A004C45445F5245443A205A
:200F250025780A004C45445F47524E3A2025780A004C45445F424C553A2025780A0053314D
:200F45003A25780A0053323A25780A000A0A4C432D54656368204346572076312E312E326B
:090F65000A0072656164790A005A
:20047700AC82AD83AEF0FF538EF7438901D28CEC4D4E4F601A758A7E758CFF108D0280FB80
:200497001CBCFF091DBDFF051EBEFF011F80E0C28C22AC82AD83AEF0FF538EF7438901D24A
:2004B7008CEC4D4E4F601A758ACA758CFA108D0280FB1CBCFF091DBDFF051EBEFF011F8032
:2004D700E0C28C22AC82AD83AEF0FF538EEF438910D28EEC4D4E4F601A758BEA758DCB1097
:2004F7008F0280FB1CBCFF091DBDFF051EBEFF011F80E0C28E22AC82AD83AEF0FF53C9BF78
:2005170053C9DF43C910D2CAEC4D4E4F601A75CC3075CDF810CF0280FB1CBCFF091DBDFF01
:20053700051EBEFF011F80E0C2CA22AC82AD83AEF0FF75C40743C408EC4D4E4F602075C5BC
:200557002C75C6CFABC4530310BB10F853C4EF1CBCFF091DBDFF051EBEFF011F80DA53C486
:20057700F722AC82AD83AEF0FF75C40743C408EC4D4E4F602075C5D875C6FFABC45303108A
:19059700BB10F853C4EF1CBCFF091DBDFF051EBEFF011F80DA53C4F7223F
:2005B000AC82AD83AEF0FF53B1BF53B2BF53B17F53B27F759850438920438780438E1053DB
:2005D000C4DF8C148D158E168F1790424075F00FE41206B6AC820CC3E49CF58DD28ED299DA
:2005F00022AC82AD83AEF0FF53B1BF53B2BF53B17F53B27F75985043878053C4F843C42063
:200610008C148D158E168F1790424075F00FE41206B6AC82AD83AEF0FF74FFC39C74FF9D29
:20063000F9E49EE49F89C674FFC39CF5C543C408D299223098FD859982C29822AF82C299C8
:200650008F993099FD22AC82AD83AEF0FF53B1FB53B2FB53B3BF53B4BF75F85075C40853A4
:20067000C4DF8C148D158E168F1790424075F00FE41206B6AC82AD83AEF0FF74FFC39C74C2
:20069000FF9DF9E49EE49F89C674FFC39CF5C543C4082230F8FD859A82C2F822AF82C2F916
:0606B0008F9A30F9FD22D3
:2006B600FB7A20E4FCFDFEFFE5822582F582E58333F583E5F033F5F0EB33FB4017DAE9807D
:2006D60042E5822582F582E58333F583E5F033F5F0EB33FBEC33FCED33FDEE33FEEF33FFAC
:2006F600EC9514ED9515EE9516EF95174013EC9514FCED9515FDEE9516FEEF9517FF438216
:0507160001DABEEB2238
:0600A300E478FFF6D8FD31
:200081007900E94400601B7A00900F79780175A000E493F2A308B8000205A0D9F4DAF2759D
:0200A100A0FFBE
:1B071B0020F71130F6138883A88220F509F6A8837583002280FEF280F5F022DD
:2000A9007800E84400600A790175A000E4F309D8FC7800E84400600C7900900001E4F0A355
:0400C900D8FCD9FA8C
:20073600C0138581137E008E831200DED0132285823185833285F033E4F52EF52FF5308544
:20075600123490073602081CC013E581F51324FBF534E4F52EF52FF530E51324FBF88631AB
:0F07760008863208863390073612081CD01322EB
:20078500AF82C024C025C0261207928007C022C0238F8222158115811581052CE4B52C0290
:2007A500052D22AF8274302FFF24C6500B74072FFFE52160034307208F82020785E582FF17
:2007C500C4540FF582C0071207A8D007740F5FF5820207A8858214AB27AC28AD29AE2AAAF4
:2007E5002B751620EA2AF515EE2354014515FAEB2BFBEC33FCED33FDEE33FEC3EA95144048
:2008050008EAC39514FA430301D516D88B278C288D298E2A8A2B22858222858323852E249B
:20082500852F25853026E4F52CF52DAD31AE32AF338D828E838FF0120EE5FC74012DF531D0
:20084500E43EF5328F33ECFF7003020EA9BF25028003020EA1E4F535F536F537F538F53997
:20086500F53AF53BF53CF53EF53FF5407541FF7542FFAC31AD32AE338C828D838EF0120E83
:20088500E5F546A3AC82AD838C318D328E337425B54608854682120785809074D02546406F
:2008A50003020941E54624C6500302094174FFB5414BB54248C004C005C006853F14854051
:2008C5001590000AC006C005C004120EC8AA82AB83D004D005D006AE467D00EE2AFAED3BA9
:2008E500FBEA24D0F53FEB34FFF540E53F4540D006D005D004708175360102087DC004C0C3
:2009050005C00685411485421590000AC006C005C004120EC8AA82AB83D004D005D006ADFA
:20092500467E00ED2AFAEE3BFBEA24D0F541EB34FFF542D006D005D00402087D742EB546AD
:200945001574FFB54105B54202800302087DE4F541F54202087D749F2546500EE546248584
:2009650040085346DF75210180037521007420B54603020A0E742BB54603020A08742DB54F
:20098500460280797442B54603020A147443B54603020A207444B54603020BB27446B54632
:2009A50003020BC97448B5460302087D7449B54603020BB2744AB5460302087D744CB546A0
:2009C500028052744FB54603020BBA7450B54603020B477453B5460280627454B546030232
:2009E500087D7455B54603020BBF7458B54603020BC4745AB5460302087D020BCE75350166
:200A050002087D75370102087D75380102087D753A0102087D753B0102087DE53A600AE504
:200A25003414F989348706800BE53424FEFD8D348D0187068E82120785020BDAE53424FDB8
:200A4500FE8E348E01870409870509870619198C278D288E298C828D838EF0120EB08582C8
:200A65004785834874FFB54109B54206854741854842E535703DC3E547953FE54895405073
:200A850032E53FC39547F53FE5409548F540AC3FAB408C028B061CBCFF011BEA4E601075EC
:200AA5008220C004C003120785D003D00480E38C3F8B40AD41AE42AA27AB28AC298A828BDC
:200AC500838CF0120EE5FC6033C3E49D74808EF063F08095F050251DBDFF011E8C82C0062F
:200AE500C005120785D005D006AA27AB28AC290ABA00010B8A278B288C2980BBE5357003B9
:200B0500020BDAC3E547953FE54895404003020BDAE53FC39547F53FE5409548F540AE3FDF
:200B2500AD408E038D041EBEFF011DEB4C7003020BD6758220C006C005120785D005D00630
:200B450080E0E53424FDFC8C348C01870209870309870419198A278B288C29AC29BC8000A1
:200B650040047B438014BC600040047B50800BBC400040047B4980027B588B82C0031207E2
:200B85008575823A120785758230120785758278120785D003BB4902800BBB5002800685AE
:200BA50028821207C28527821207C28028753901753E0A8020753E08801B753E0A801675D0
:200BC5003E108011753C01800C85468212078580048E3F8D40E53C605BE53424FCFE8E3415
:200BE5008E0187030987040987050987061919198B278C288D298E2A75276E75280F7529A5
:200C05008085274985284A85294B74012549FAE4354AFBAE4B8A278B288E29854982854AFC
:200C250083854BF0120EE5FD70030208308D8212078580CDE53E7003020830E53A6032E55D
:200C45003414F9893487067D007C007B008E278D288C298B2AE5397072AB27AC28AD29AE92
:200C65002A7C007D007E008B278C288D298E2A805AE53B6021E53424FCFE8E348E0187036D
:200C85000987040987050987061919198B278C288D298E2A8035E53424FEFE8E348E0187AB
:200CA5000509870619EE3395E0FCFB8D278E288C298B2AE5397014AB27AC28AD29AE2A7DA7
:200CC500007E008B278C288D298E2AE539602DAB27AC28AD29E52A30E71FAB27AC28AD29D5
:200CE500AE2AC3E49BFBE49CFCE49DFDE49EFE8B278C288D298E2A8003753900753D01792F
:200D05001DE4F549F54A752B00853E82C0011207D9D001E53D7013E52BC454F0FCE52BC45A
:200D2500540F4204E74CF7198002A72B74012549F549E4354AF54AE53DB40100E433F53D8B
:200D4500AA27AB28AC29AE2AEA4B4C4E70B88945854943854A44E53F45407005753F01F58C
:200D650040E536702FE535702BAA3FAB40AE430E8E057E00C3ED9AEE9B5015758220C003C9
:200D8500C002120785D002D0031ABAFF011B80DD8A3F8B40E539601175822D120785153FC4
:200DA50074FFB53F021540802EE54345446028E537601175822B120785153F74FFB53F027F
:200DC50015408013E538600F758220120785153F74FFB53F021540E535702FAE3FAD408EB2
:200DE500038D041EBEFF011DC3E5439BE5449C503AE53660047C3080027C208C82C006C0AF
:200E050005120785D005D00680D5C3E543953FE5449540500FE53FC39543F53FE54095441D
:200E2500F540800BE4F53FF54080048E3F8D40A945AD43AE448D038E041DBDFF011EEB4C61
:200E4500602FE53DB40100E433F53D700909E7C4540FF52B80078704740F5CF52B852B82EB
:200E6500C006C005C0011207A8D001D005D00680C4E5357003020830AD3FAE408D038E04DD
:200E85001DBDFF011EEB4C7003020830758220C006C005120785D005D00680E08F821207FC
:0B0EA50085020830852C82852D8322F9
:0B0F6E003C4E4F20464C4F41543E00CB
:180EB000AA82AB83120EE56003A380F8C3E5829AF582E5839BF5832275
:1D0EC800E5828514F0A4C582C0F08515F0A4D0F025F0C5838514F0A42583F58322C8
:0D00740075814B120F01E5826003020071DF
:1C0EE50020F71430F6148883A88220F507E6A88375830022E280F7E49322E0221C
:040F010075820022D3
:00000001FF
