:0300000002004CAF
:200008000000E2FBEAF2802C0000E0FBEAF08024E6B50202EBF62200E2B50202EBF22200DE
:20002800E0B50202EBF02230F6E0A88220F5D3EAC6F582228B822230F6E6A88220F5D980EE
:01004800CFE8
:0300A5000200490D
:0300490002031D92
:2000A8003098FDAF99C2987E008F828E8322AE82AF83BE0A11BF000E90000DC007C00612CB
:2000C80000B6D006D007C2998E993099FD9000002285820885830985F00AE412066E1200A0
:2000E800A8AB82850882850983850AF0EB12066EBBA0EB74012508FAE43509FBAC0AC0049A
:20010800C003C0021200A8A882D002D003D0048A828B838CF0E812066E74022508F50BE46A
:200128003509F50C850A0DC004C003C0021200A8AD82D002D003D004850B82850C83850D79
:20014800F0ED12066E74032508FDE43509FEAF0AC007C006C005C004C003C0021200A8A8BD
:2001680082D002D003D004D005D006D0078D828E838FF0E812066E850882850983850AF04E
:20018800120E38FF8A828B838CF0120E382FFF850B82850C83850DF0120E382FB5000122DD
:2001A8000200E62290000E75F0401200D9AF0FBF0102801DBF1102803EBF12028060BF13CD
:2001C8000302024DBF2103020270BF220302029122E51024FF9295D2DEAE107F00C006C01F
:2001E800077458C0E0740EC0E07480C0E01206B1E58124FBF58122E51024FF9282A282E4B4
:2002080033FE7F00C006C0077460C0E0740EC0E07480C0E01206B1E58124FBF58122E51094
:2002280024FF9283A283E433FE7F00C006C007746DC0E0740EC0E07480C0E01206B1E581D2
:2002480024FBF581228510DCD2DEAEDC7F00C006C007747AC0E0740EC0E07480C0E01206CC
:20026800B1E58124FBF58122A281E433FE7F00C006C0077487C0E0740EC0E07480C0E01201
:2002880006B1E58124FBF58122A280E433FE7F00C006C007748EC0E0740EC0E07480C0E0E7
:2002A8001206B1E58124FBF58122AC82AD83AEF0FF53B1BF43B24043B18053B27F75985008
:2002C800438920438780438E1053C4DF8C148D158E168F1790424075F00FE4120609AC82C4
:2002E8000CC3E49CF58DD28ED29922AD82AE83AFF0C007C006C0051200A8AB82D005D00655
:20030800D0078D828E838FF0EB12066EA3AD82AE83BB0ADD22904B00E4F5F01202B27495B4
:20032800C0E0740EC0E07480C0E01206B115811581158153B3DF43B42053B1FB43B204538D
:20034800B1F743B20853B1EF43B21043B10253B2FD43B10153B2FE75D10075D9FF538EBFD5
:2003680043DF0753DFEFA2AF9200C2AF75C7AA75C75543910143C60875C7AA75C75553911F
:20038800FEA20092AFA2AF9200C2AF75C7AA75C75543910143C62075C7AA75C7555391FE52
:2003A800A20092AFC282C283C2849001F4E4F5F01203FC75D50075C500D282D2DF1201ACDC
:0203C80080FBB8
:200E580052313A2025780A004C45445F5245443A2025780A004C45445F47524E3A202578D4
:200E78000A004C45445F424C553A2025780A0053313A25780A0053323A25780A000A0A4C0D
:170E9800432D54656368204346572076312E302072656164790A00EB
:2003CA00AC82AD83AEF0FF538EF7438901D28CEC4D4E4F601A758A7E758CFF108D0280FB2E
:2003EA001CBCFF091DBDFF051EBEFF011F80E0C28C22AC82AD83AEF0FF538EF7438901D2F8
:20040A008CEC4D4E4F601A758ACA758CFA108D0280FB1CBCFF091DBDFF051EBEFF011F80DF
:20042A00E0C28C22AC82AD83AEF0FF538EEF438910D28EEC4D4E4F601A758BEA758DCB1044
:20044A008F0280FB1CBCFF091DBDFF051EBEFF011F80E0C28E22AC82AD83AEF0FF53C9BF25
:20046A0053C9DF43C910D2CAEC4D4E4F601A75CC3075CDF810CF0280FB1CBCFF091DBDFFAF
:20048A00051EBEFF011F80E0C2CA22AC82AD83AEF0FF75C40743C408EC4D4E4F602075C56A
:2004AA002C75C6CFABC4530310BB10F853C4EF1CBCFF091DBDFF051EBEFF011F80DA53C434
:2004CA00F722AC82AD83AEF0FF75C40743C408EC4D4E4F602075C5D875C6FFABC453031038
:1904EA00BB10F853C4EF1CBCFF091DBDFF051EBEFF011F80DA53C4F722ED
:20050300AC82AD83AEF0FF53B1BF53B2BF53B17F53B27F759850438920438780438E105388
:20052300C4DF8C148D158E168F1790424075F00FE4120609AC820CC3E49CF58DD28ED29934
:2005430022AC82AD83AEF0FF53B1BF53B2BF53B17F53B27F75985043878053C4F843C42010
:200563008C148D158E168F1790424075F00FE4120609AC82AD83AEF0FF74FFC39C74FF9D84
:20058300F9E49EE49F89C674FFC39CF5C543C408D299223098FD859982C29822AF82C29976
:2005A3008F993099FD22AC82AD83AEF0FF53B1FB53B2FB53B3BF53B4BF75F85075C4085352
:2005C300C4DF8C148D158E168F1790424075F00FE4120609AC82AD83AEF0FF74FFC39C741D
:2005E300FF9DF9E49EE49F89C674FFC39CF5C543C4082230F8FD859A82C2F822AF82C2F9C4
:060603008F9A30F9FD2280
:20060900FB7A20E4FCFDFEFFE5822582F582E58333F583E5F033F5F0EB33FB4017DAE9802A
:2006290042E5822582F582E58333F583E5F033F5F0EB33FBEC33FCED33FDEE33FEEF33FF59
:20064900EC9514ED9515EE9516EF95174013EC9514FCED9515FDEE9516FEEF9517FF4382C3
:0506690001DABEEB22E6
:06007B00E478FFF6D8FD59
:200059007900E94400601B7A00900EBA780175A000E493F2A308B8000205A0D9F4DAF27585
:02007900A0FFE6
:1B066E0020F71130F6138883A88220F509F6A8837583002280FEF280F5F0228B
:200081007800E84400600A790175A000E4F309D8FC7800E84400600C7900900001E4F0A37D
:0400A100D8FCD9FAB4
:20068900C0138581137E008E831200B6D0132285823185833285F033E4F52EF52FF530851A
:2006A900123490068902076FC013E581F51324FBF534E4F52EF52FF530E51324FBF88631B5
:0F06C90008863208863390068912076FD01322F5
:2006D800AF82C024C025C0261206E58007C022C0238F8222158115811581052CE4B52C02EC
:2006F800052D22AF8274302FFF24C6500B74072FFFE52160034307208F820206D8E582FF73
:20071800C4540FF582C0071206FBD007740F5FF5820206FB858214AB27AC28AD29AE2AAAFD
:200738002B751620EA2AF515EE2354014515FAEB2BFBEC33FCED33FDEE33FEC3EA951440F5
:2007580008EAC39514FA430301D516D88B278C288D298E2A8A2B22858222858323852E2449
:20077800852F25853026E4F52CF52DAD31AE32AF338D828E838FF0120E38FC74012DF5312B
:20079800E43EF5328F33ECFF7003020DFCBF25028003020DF4E4F535F536F537F538F539A1
:2007B800F53AF53BF53CF53EF53FF5407541FF7542FFAC31AD32AE338C828D838EF0120E31
:2007D80038F546A3AC82AD838C318D328E337425B546088546821206D8809074D025464078
:2007F80003020894E54624C6500302089474FFB5414BB54248C004C005C006853F1485405B
:200818001590000AC006C005C004120E1BAA82AB83D004D005D006AE467D00EE2AFAED3B03
:20083800FBEA24D0F53FEB34FFF540E53F4540D006D005D00470817536010207D0C004C01E
:2008580005C00685411485421590000AC006C005C004120E1BAA82AB83D004D005D006AD55
:20087800467E00ED2AFAEE3BFBEA24D0F541EB34FFF542D006D005D0040207D0742EB54609
:200898001574FFB54105B5420280030207D0E4F541F5420207D0749F2546500EE54624858E
:2008B80040085346DF75210180037521007420B54603020961742BB5460302095B742DB559
:2008D800460280797442B546030209677443B546030209737444B54603020B057446B546E9
:2008F80003020B1C7448B546030207D07449B54603020B05744AB546030207D0744CB54604
:20091800028052744FB54603020B0D7450B54603020A9A7453B5460280627454B54603023A
:2009380007D07455B54603020B127458B54603020B17745AB546030207D0020B2175350176
:200958000207D07537010207D07538010207D0753A010207D0753B010207D0E53A600AE518
:200978003414F989348706800BE53424FEFD8D348D0187068E821206D8020B2DE53424FDC1
:20099800FE8E348E01870409870509870619198C278D288E298C828D838EF0120E03858223
:2009B8004785834874FFB54109B54206854741854842E535703DC3E547953FE54895405021
:2009D80032E53FC39547F53FE5409548F540AC3FAB408C028B061CBCFF011BEA4E6010759A
:2009F8008220C004C0031206D8D003D00480E38C3F8B40AD41AE42AA27AB28AC298A828B38
:200A1800838CF0120E38FC6033C3E49D74808EF063F08095F050251DBDFF011E8C82C00689
:200A3800C0051206D8D005D006AA27AB28AC290ABA00010B8A278B288C2980BBE535700314
:200A5800020B2DC3E547953FE54895404003020B2DE53FC39547F53FE5409548F540AE3FE7
:200A7800AD408E038D041EBEFF011DEB4C7003020B29758220C006C0051206D8D005D00639
:200A980080E0E53424FDFC8C348C01870209870309870419198A278B288C29AC29BC80004F
:200AB80040047B438014BC600040047B50800BBC400040047B4980027B588B82C003120691
:200AD800D875823A1206D87582301206D87582781206D8D003BB4902800BBB500280068513
:200AF80028821207158527821207158028753901753E0A8020753E08801B753E0A801675D8
:200B18003E108011753C01800C8546821206D880048E3F8D40E53C605BE53424FCFE8E3470
:200B38008E0187030987040987050987061919198B278C288D298E2A7527AF75280E752912
:200B58008085274985284A85294B74012549FAE4354AFBAE4B8A278B288E29854982854AAA
:200B780083854BF0120E38FD70030207838D821206D880CDE53E7003020783E53A6032E5C2
:200B98003414F9893487067D007C007B008E278D288C298B2AE5397072AB27AC28AD29AE40
:200BB8002A7C007D007E008B278C288D298E2A805AE53B6021E53424FCFE8E348E0187031B
:200BD8000987040987050987061919198B278C288D298E2A8035E53424FEFE8E348E018759
:200BF8000509870619EE3395E0FCFB8D278E288C298B2AE5397014AB27AC28AD29AE2A7D55
:200C1800007E008B278C288D298E2AE539602DAB27AC28AD29E52A30E71FAB27AC28AD2982
:200C3800AE2AC3E49BFBE49CFCE49DFDE49EFE8B278C288D298E2A8003753900753D0179DC
:200C58001DE4F549F54A752B00853E82C00112072CD001E53D7013E52BC454F0FCE52BC4B5
:200C7800540F4204E74CF7198002A72B74012549F549E4354AF54AE53DB40100E433F53D39
:200C9800AA27AB28AC29AE2AEA4B4C4E70B88945854943854A44E53F45407005753F01F53A
:200CB80040E536702FE535702BAA3FAB40AE430E8E057E00C3ED9AEE9B5015758220C00377
:200CD800C0021206D8D002D0031ABAFF011B80DD8A3F8B40E539601175822D1206D8153FCE
:200CF80074FFB53F021540802EE54345446028E537601175822B1206D8153F74FFB53F02DB
:200D180015408013E538600F7582201206D8153F74FFB53F021540E535702FAE3FAD408E0D
:200D3800038D041EBEFF011DC3E5439BE5449C503AE53660047C3080027C208C82C006C05C
:200D5800051206D8D005D00680D5C3E543953FE5449540500FE53FC39543F53FE540954479
:200D7800F540800BE4F53FF54080048E3F8D40A945AD43AE448D038E041DBDFF011EEB4C0F
:200D9800602FE53DB40100E433F53D700909E7C4540FF52B80078704740F5CF52B852B8299
:200DB800C006C005C0011206FBD001D005D00680C4E5357003020783AD3FAE408D038E04E7
:200DD8001DBDFF011EEB4C7003020783758220C006C0051206D8D005D00680E08F82120607
:0B0DF800D8020783852C82852D832202
:0B0EAF003C4E4F20464C4F41543E008B
:180E0300AA82AB83120E386003A380F8C3E5829AF582E5839BF58322CF
:1D0E1B00E5828514F0A4C582C0F08515F0A4D0F025F0C5838514F0A42583F5832275
:0D004C0075814B120E54E5826003020049DD
:1C0E380020F71430F6148883A88220F507E6A88375830022E280F7E49322E022C9
:040E54007582002281
:00000001FF
