:040000000200743254
:01000B0032C2
:0100130032BA
:01001B0032B2
:0100230032AA
:03002B00020101CE
:200030000000E2FBEAF2802C0000E0FBEAF08024E6B50202EBF62200E2B50202EBF22200B6
:20005000E0B50202EBF02230F6E0A88220F5D3EAC6F582228B822230F6E6A88220F5D980C6
:01007000CFC0
:0300CD00020071BD
:030071000203B1D6
:2000D0003098FDAF99C2987E008F828E8322AE82AF83BE0A11BF000E90000DC007C00612A3
:2000F00000DED006D007C2998E993099FD9000002275C7AA75C75543AA103243C97053C82E
:20011000FE75CB8575CAEE75CD8575CCEED2AF439B80D2CA75C7AA75C75543AA27E5AA3024
:20013000E30353AAF72285820885830985F00AE41207181200D0AB82850882850983850A41
:20015000F0EB120718BBA0EB74012508FAE43509FBAC0AC004C003C0021200D0A882D002A7
:20017000D003D0048A828B838CF0E812071874022508F8E43509F9AF0AC007C004C003C09C
:2001900002C001C0001200D0AD82D000D001D002D003D004D007888289838FF0ED12071817
:2001B00074032508F50BE43509F50C850A0DC007C004C003C002C001C0001200D0AD82D05A
:2001D00000D001D002D003D004D007850B82850C83850DF0ED120718850882850983850A79
:2001F000F0120EE2FE8A828B838CF0120EE22EFE888289838FF0120EE22EFFB50501228515
:200210000B82850C83850DF0120EE2FE7D007C00C006C005C007C0047402C0E0740FC0E063
:200230007480C0E012075BE58124F9F58102014390000E75F040120136AF0FBF0102801DBE
:20025000BF1102803EBF12028060BF13030202E1BF2103020304BF220302032522E510245C
:20027000FF9295D2DEAE107F00C006C0077411C0E0740FC0E07480C0E012075BE58124FBF9
:20029000F58122E51024FF9282A282E433FE7F00C006C0077419C0E0740FC0E07480C0E061
:2002B00012075BE58124FBF58122E51024FF9283A283E433FE7F00C006C0077426C0E0747C
:2002D0000FC0E07480C0E012075BE58124FBF581228510DCD2DEAEDC7F00C006C0077433DC
:2002F000C0E0740FC0E07480C0E012075BE58124FBF58122A281E433FE7F00C006C007744E
:2003100040C0E0740FC0E07480C0E012075BE58124FBF58122A280E433FE7F00C006C00762
:200330007447C0E0740FC0E07480C0E012075BE58124FBF58122AC82AD83AEF0FF53B1BF4C
:2003500043B24043B18053B27F759850438920438780438E1053C4DF8C148D158E168F176A
:2003700090424075F00FE41206B3AC820CC3E49CF58DD28ED29922AD82AE83AFF0C007C0C6
:2003900006C0051200D0AB82D005D006D0078D828E838FF0EB120718A3AD82AE83BB0ADD91
:2003B00022904B00E4F5F0120346744EC0E0740FC0E07480C0E012075B15811581158112AB
:2003D000010B53B3DF43B42053B1FB43B20453B1F743B20853B1EF43B21043B10253B2FD25
:2003F00043B10153B2FE75D10075D9FF538EBF43DF0753DFEFA2AF9200C2AF75C7AA75C702
:200410005543910143C60875C7AA75C7555391FEA20092AFA2AF9200C2AF75C7AA75C7558A
:2004300043910143C62075C7AA75C7555391FEA20092AFC282C283C2849001F4E4F5F01243
:2004500004A675D50075C500D2DF7464C0E0740FC0E07480C0E012075B1581158115811236
:04047000024080FBCB
:200F02006572723A20257820213D2025780A0052313A2025780A004C45445F5245443A205D
:200F220025780A004C45445F47524E3A2025780A004C45445F424C553A2025780A00533150
:200F42003A25780A0053323A25780A000A0A4C432D54656368204346572076312E312E316F
:090F62000A0072656164790A005D
:20047400AC82AD83AEF0FF538EF7438901D28CEC4D4E4F601A758A7E758CFF108D0280FB83
:200494001CBCFF091DBDFF051EBEFF011F80E0C28C22AC82AD83AEF0FF538EF7438901D24D
:2004B4008CEC4D4E4F601A758ACA758CFA108D0280FB1CBCFF091DBDFF051EBEFF011F8035
:2004D400E0C28C22AC82AD83AEF0FF538EEF438910D28EEC4D4E4F601A758BEA758DCB109A
:2004F4008F0280FB1CBCFF091DBDFF051EBEFF011F80E0C28E22AC82AD83AEF0FF53C9BF7B
:2005140053C9DF43C910D2CAEC4D4E4F601A75CC3075CDF810CF0280FB1CBCFF091DBDFF04
:20053400051EBEFF011F80E0C2CA22AC82AD83AEF0FF75C40743C408EC4D4E4F602075C5BF
:200554002C75C6CFABC4530310BB10F853C4EF1CBCFF091DBDFF051EBEFF011F80DA53C489
:20057400F722AC82AD83AEF0FF75C40743C408EC4D4E4F602075C5D875C6FFABC45303108D
:19059400BB10F853C4EF1CBCFF091DBDFF051EBEFF011F80DA53C4F72242
:2005AD00AC82AD83AEF0FF53B1BF53B2BF53B17F53B27F759850438920438780438E1053DE
:2005CD00C4DF8C148D158E168F1790424075F00FE41206B3AC820CC3E49CF58DD28ED299E0
:2005ED0022AC82AD83AEF0FF53B1BF53B2BF53B17F53B27F75985043878053C4F843C42066
:20060D008C148D158E168F1790424075F00FE41206B3AC82AD83AEF0FF74FFC39C74FF9D2F
:20062D00F9E49EE49F89C674FFC39CF5C543C408D299223098FD859982C29822AF82C299CB
:20064D008F993099FD22AC82AD83AEF0FF53B1FB53B2FB53B3BF53B4BF75F85075C40853A7
:20066D00C4DF8C148D158E168F1790424075F00FE41206B3AC82AD83AEF0FF74FFC39C74C8
:20068D00FF9DF9E49EE49F89C674FFC39CF5C543C4082230F8FD859A82C2F822AF82C2F919
:0606AD008F9A30F9FD22D6
:2006B300FB7A20E4FCFDFEFFE5822582F582E58333F583E5F033F5F0EB33FB4017DAE98080
:2006D30042E5822582F582E58333F583E5F033F5F0EB33FBEC33FCED33FDEE33FEEF33FFAF
:2006F300EC9514ED9515EE9516EF95174013EC9514FCED9515FDEE9516FEEF9517FF438219
:0507130001DABEEB223B
:0600A300E478FFF6D8FD31
:200081007900E94400601B7A00900F76780175A000E493F2A308B8000205A0D9F4DAF275A0
:0200A100A0FFBE
:1B07180020F71130F6138883A88220F509F6A8837583002280FEF280F5F022E0
:2000A9007800E84400600A790175A000E4F309D8FC7800E84400600C7900900001E4F0A355
:0400C900D8FCD9FA8C
:20073300C0138581137E008E831200DED0132285823185833285F033E4F52EF52FF5308547
:200753001234900733020819C013E581F51324FBF534E4F52EF52FF530E51324FBF88631B4
:0F077300088632088633900733120819D01322F4
:20078200AF82C024C025C02612078F8007C022C0238F8222158115811581052CE4B52C0296
:2007A200052D22AF8274302FFF24C6500B74072FFFE52160034307208F82020782E582FF1D
:2007C200C4540FF582C0071207A5D007740F5FF5820207A5858214AB27AC28AD29AE2AAAFD
:2007E2002B751620EA2AF515EE2354014515FAEB2BFBEC33FCED33FDEE33FEC3EA9514404B
:2008020008EAC39514FA430301D516D88B278C288D298E2A8A2B22858222858323852E249E
:20082200852F25853026E4F52CF52DAD31AE32AF338D828E838FF0120EE2FC74012DF531D6
:20084200E43EF5328F33ECFF7003020EA6BF25028003020E9EE4F535F536F537F538F539A0
:20086200F53AF53BF53CF53EF53FF5407541FF7542FFAC31AD32AE338C828D838EF0120E86
:20088200E2F546A3AC82AD838C318D328E337425B54608854682120782809074D025464078
:2008A2000302093EE54624C6500302093E74FFB5414BB54248C004C005C006853F1485405A
:2008C2001590000AC006C005C004120EC5AA82AB83D004D005D006AE467D00EE2AFAED3BAF
:2008E200FBEA24D0F53FEB34FFF540E53F4540D006D005D004708175360102087AC004C0C9
:2009020005C00685411485421590000AC006C005C004120EC5AA82AB83D004D005D006AD00
:20092200467E00ED2AFAEE3BFBEA24D0F541EB34FFF542D006D005D00402087A742EB546B3
:200942001574FFB54105B54202800302087AE4F541F54202087A749F2546500EE54624858D
:2009620040085346DF75210180037521007420B54603020A0B742BB54603020A05742DB558
:20098200460280797442B54603020A117443B54603020A1D7444B54603020BAF7446B5463E
:2009A20003020BC67448B5460302087A7449B54603020BAF744AB5460302087A744CB546AF
:2009C200028052744FB54603020BB77450B54603020B447453B5460280627454B54603023B
:2009E200087A7455B54603020BBC7458B54603020BC1745AB5460302087A020BCB75350178
:200A020002087A75370102087A75380102087A753A0102087A753B0102087AE53A600AE516
:200A22003414F989348706800BE53424FEFD8D348D0187068E82120782020BD7E53424FDC1
:200A4200FE8E348E01870409870509870619198C278D288E298C828D838EF0120EAD8582CE
:200A62004785834874FFB54109B54206854741854842E535703DC3E547953FE54895405076
:200A820032E53FC39547F53FE5409548F540AC3FAB408C028B061CBCFF011BEA4E601075EF
:200AA2008220C004C003120782D003D00480E38C3F8B40AD41AE42AA27AB28AC298A828BE2
:200AC200838CF0120EE2FC6033C3E49D74808EF063F08095F050251DBDFF011E8C82C00635
:200AE200C005120782D005D006AA27AB28AC290ABA00010B8A278B288C2980BBE5357003BF
:200B0200020BD7C3E547953FE54895404003020BD7E53FC39547F53FE5409548F540AE3FE8
:200B2200AD408E038D041EBEFF011DEB4C7003020BD3758220C006C005120782D005D00639
:200B420080E0E53424FDFC8C348C01870209870309870419198A278B288C29AC29BC8000A4
:200B620040047B438014BC600040047B50800BBC400040047B4980027B588B82C0031207E5
:200B82008275823A120782758230120782758278120782D003BB4902800BBB5002800685BD
:200BA20028821207BF8527821207BF8028753901753E0A8020753E08801B753E0A801675D9
:200BC2003E108011753C01800C85468212078280048E3F8D40E53C605BE53424FCFE8E341B
:200BE2008E0187030987040987050987061919198B278C288D298E2A75276B75280F7529AB
:200C02008085274985284A85294B74012549FAE4354AFBAE4B8A278B288E29854982854AFF
:200C220083854BF0120EE2FD700302082D8D8212078280CDE53E700302082DE53A6032E56C
:200C42003414F9893487067D007C007B008E278D288C298B2AE5397072AB27AC28AD29AE95
:200C62002A7C007D007E008B278C288D298E2A805AE53B6021E53424FCFE8E348E01870370
:200C82000987040987050987061919198B278C288D298E2A8035E53424FEFE8E348E0187AE
:200CA2000509870619EE3395E0FCFB8D278E288C298B2AE5397014AB27AC28AD29AE2A7DAA
:200CC200007E008B278C288D298E2AE539602DAB27AC28AD29E52A30E71FAB27AC28AD29D8
:200CE200AE2AC3E49BFBE49CFCE49DFDE49EFE8B278C288D298E2A8003753900753D017932
:200D02001DE4F549F54A752B00853E82C0011207D6D001E53D7013E52BC454F0FCE52BC460
:200D2200540F4204E74CF7198002A72B74012549F549E4354AF54AE53DB40100E433F53D8E
:200D4200AA27AB28AC29AE2AEA4B4C4E70B88945854943854A44E53F45407005753F01F58F
:200D620040E536702FE535702BAA3FAB40AE430E8E057E00C3ED9AEE9B5015758220C003CC
:200D8200C002120782D002D0031ABAFF011B80DD8A3F8B40E539601175822D120782153FCD
:200DA20074FFB53F021540802EE54345446028E537601175822B120782153F74FFB53F0285
:200DC20015408013E538600F758220120782153F74FFB53F021540E535702FAE3FAD408EB8
:200DE200038D041EBEFF011DC3E5439BE5449C503AE53660047C3080027C208C82C006C0B2
:200E020005120782D005D00680D5C3E543953FE5449540500FE53FC39543F53FE540954423
:200E2200F540800BE4F53FF54080048E3F8D40A945AD43AE448D038E041DBDFF011EEB4C64
:200E4200602FE53DB40100E433F53D700909E7C4540FF52B80078704740F5CF52B852B82EE
:200E6200C006C005C0011207A5D001D005D00680C4E535700302082DAD3FAE408D038E04E6
:200E82001DBDFF011EEB4C700302082D758220C006C005120782D005D00680E08F82120705
:0B0EA2008202082D852C82852D832202
:0B0F6B003C4E4F20464C4F41543E00CE
:180EAD00AA82AB83120EE26003A380F8C3E5829AF582E5839BF583227B
:1D0EC500E5828514F0A4C582C0F08515F0A4D0F025F0C5838514F0A42583F58322CB
:0D00740075814B120EFEE5826003020071E3
:1C0EE20020F71430F6148883A88220F507E6A88375830022E280F7E49322E0221F
:040EFE0075820022D7
:00000001FF
